:100000000C94D6010C94FE010C94FE010C94FE019C
:100010000C94FE010C94FE010C94FE010C94FE0164
:100020000C94FE010C94FE010C94FE010C94670EDE
:100030000C94FE010C94FE010C94FE010C94FE0144
:100040000C941D0E0C94FE010C94EB0D0C94C50D3C
:100050000C94FE010C94FE010C94FE010C94FE0124
:100060000C94FE010C94FE010101FF030101F70352
:100070006C00680000000000240027002A00000037
:100080000000250028002B000500893008023802F6
:100090004978681400000500380168010000175312
:1000A00044001613780016131400151020001520B4
:1000B0001000540A03E181867F3E186D830F0F0EF6
:1000C0000183866033186DC3198F1803C38E6033A4
:1000D000186DE330CF1803C39E603630CDE360CF98
:1000E0003006C79E7E3E30CDB360CF300CC6F66082
:1000F0003330D9B660CF33CFCCF66061B0DB1E6051
:10010000CF30D86CE6C061B0DB1E618F19986CC629
:10011000C063B19B0E330F0FB078C6FF7E1F1B0666
:100120001E0F536E616B65000A0A153A49676E6FC0
:100130007265006D560A0A504C454153452054558E
:10014000524E204F464620004C4F572042415454B7
:1001500045525921200003053F213F1208120A1081
:100160000A0E1C0E0C1E0C141A14161F161E131E3B
:100170001E1B1E1E1F1E3F213F3A2F3A173D173FE1
:10018000213F181F02040A041F0E04040E1F0A1F39
:100190000A0E0E1F04110E2E252E2F2A2E26292977
:1001A000021F02081F08150E04040E150E15151B5C
:1001B000151B040604040C040000000017000300D3
:1001C000031F0A1F16371A1904130A153A000300F1
:1001D000000E11110E000A040A040E04003000047F
:1001E00004040010001804031F111F121F101D1516
:1001F0001711151F07041F17151D1F151D01011FBE
:100200001F151F17151F000A00003200040A110AEB
:100210000A0A110A040115020E11171E051E1F15E8
:100220000A0E110A1F110E1F15111F05010E111DB7
:100230001F041F111F1108100F1F041B1F10101F78
:10024000061F1E040F0E110E1F09060E112E1F058C
:100250001A121509011F011F101F0F180F1F0C1F65
:100260001B041B031C03191513001F110304181191
:100270001F000201022020200001020C121E1F128A
:100280000C0C12120C121F0C1A14041E05242A1E28
:100290001F021C141D1020201D1F0814111F101EEA
:1002A000041E1E021C0C120C3E0A040C123E1E04FC
:1002B0000214160A020F120E101E0E100E1E081E39
:1002C000120C1226281E322A26041E21001F00218D
:1002D0001E040102013F213FF6E8DBCFC3B8AEA404
:1002E0009B928A827B746E68625C57524E4945418C
:1002F0003E3A3734312E2C29272523214500680129
:100300000000172B152010204C4F41444552001778
:100310002B16201314000A4E6F2053442063617281
:1003200064206F720A6E6F204C4F414445522E4834
:1003300045580A0A153A45786974001D20466C61D3
:100340007368696E670A20206C6F616465722E2E77
:100350002E0A0A444F4E2754205455524E204F46E1
:1003600046210000000000230026002900040404A8
:10037000040404040402020202020203030303034E
:10038000030102040810204080010204081020012B
:10039000020408102000000008000201000003040D
:1003A00007000000000000000000A80E11241FBE7E
:1003B000CFEFD8E0DEBFCDBF11E0A0E0B1E0E2E6D4
:1003C000FEE202C005900D92A034B107D9F724E0F7
:1003D000A0E4B1E001C01D92AA37B207E1F711E035
:1003E000C6EDD1E004C02197FE010E942917C53D4A
:1003F000D107C9F70E94DF0E0C942F170C94000050
:10040000EFEEF3E014AE12AE1092380410923704FF
:1004100015AE109251011092500110924F0110929E
:10042000B4000895CF93DF93E0911D048E2F90E0E8
:10043000880F991FE0911B04F0911C04E80FF91F2D
:10044000859194918F3F980729F410921404DF91BD
:10045000CF910895909320049927880F991FE091D8
:100460001E04F0911F04E80FF91FC591D4910E945A
:100470000002D0932204C09321041092270410920A
:10048000260481E08093150489E080932A04109269
:100490002D0410922F041092310480911D048F5F5F
:1004A00080931D04D4CF90E0880F991FE09123041E
:1004B000F0912404E80FF91F25913491309334040E
:1004C00020933304F9018591949190911804989F99
:1004D000802D112480933504F90165917491472F83
:1004E00050E08417150629F020F0F9012591349188
:1004F000832F989F802D1124809336040895AF9206
:10050000BF92CF92DF92EF92FF920F931F93CF9300
:10051000DF936C017B018B01040F151FEB015E0162
:10052000AE18BF08C017D10759F06991D601ED91F7
:10053000FC910190F081E02DC6010995892B79F796
:10054000C501DF91CF911F910F91FF90EF90DF9048
:10055000CF90BF90AF900895FC01538D448D252F0F
:1005600030E0842F90E0821B930B541710F0CF964D
:10057000089501970895FC01918D828D981761F07F
:10058000A28DAE0FBF2FB11D5D968C91928D9F5F96
:100590009F73928F90E008958FEF9FEF0895FC0175
:1005A000918D828D981731F0828DE80FF11D858D28
:1005B00090E008958FEF9FEF0895FC01918D228DBB
:1005C000892F90E0805C9F4F821B91098F73992740
:1005D000089582E593E00E94DD0221E0892B09F471
:1005E00020E0822F089580E090E0892B29F00E947E
:1005F000E90281110C9400000895FC01A48DA80F5C
:10060000B92FB11DA35ABF4F2C91848D90E0019654
:100610008F739927848FA689B7892C93A089B18974
:100620008C91837080648C93938D848D981306C015
:100630000288F389E02D80818F7D80830895EF9279
:10064000FF920F931F93CF93DF93EC0181E0888F8C
:100650009B8D8C8D98131AC0E889F989808185FF5C
:1006600015C09FB7F894EE89FF896083E889F989FE
:1006700080818370806480839FBF81E090E0DF9100
:10068000CF911F910F91FF90EF900895F62E0B8D53
:1006900010E00F5F1F4F0F731127E02E8C8D8E110E
:1006A0000CC00FB607FCFACFE889F989808185FF75
:1006B000F5CFCE010E94FD02F1CFEB8DEC0FFD2FA7
:1006C000F11DE35AFF4FF0829FB7F8940B8FEA8930
:1006D000FB8980818062CFCFCF93DF93EC01888D3F
:1006E0008823B9F0AA89BB89E889F9898C9185FDAD
:1006F00003C0808186FD0DC00FB607FCF7CF8C913B
:1007000085FFF2CF808185FFEDCFCE010E94FD02F3
:10071000E9CFDF91CF910895833081F028F48130C3
:1007200099F08230A9F008958730A9F08830C9F097
:100730008430B1F4809180008F7D03C0809180006F
:100740008F7780938000089584B58F7784BD089556
:1007500084B58F7DFBCF8091B0008F778093B00000
:1007600008958091B0008F7DF9CF1F93CF93DF93D1
:10077000282F30E0F901EB56FC4F8491F901EF5737
:10078000FC4FD491F901E359FC4FC491CC23A9F05B
:10079000162F81110E948C03EC2FF0E0EE0FFF1F4B
:1007A000E258FF4FA591B4918FB7F894EC911111D5
:1007B00008C0D095DE23DC938FBFDF91CF911F91CE
:1007C0000895DE2BF8CFCF93C82FF89460E0809186
:1007D0004C040E94B50380914D0418161CF460E08F
:1007E0000E94B503CEBD00000DB407FEFDCF8EB54F
:1007F00080914D0418161CF461E00E94B5037894B2
:10080000CF9108950F931F93CF93809149048F5FE9
:100810008093490402E511E0C0E08C2F80640E94BF
:10082000E30380E80E94E30361E080914C040E94AE
:10083000B50380914D0418161CF460E00E94B503C6
:10084000F80184E591919EBD00000DB407FEFDCF37
:100850009EB58150B9F780914D0418161CF461E0E3
:100860000E94B503CF5F0C5A1F4FC630B1F680E42B
:10087000CF911F910F910C94E303CF93DF9390E0FE
:10088000FC01EF57FC4F249183599C4FFC0184914C
:100890008823C9F090E0880F991FFC01EC58FF4FA6
:1008A000A591B491FC01E258FF4FC591D49161111B
:1008B0000DC09FB7F8948C91209582238C938881EA
:1008C000282328839FBFDF91CF910895623051F490
:1008D0009FB7F8943C91822F809583238C93E88175
:1008E0002E2BEFCF8FB7F894EC912E2B2C938FBF3C
:1008F000EACFFF920F931F93CF93DF93CFEED3E016
:10090000FF24FA9462E08A850E943D042A8530E043
:10091000F901EB56FC4F8491F901EF57FC4F04911C
:10092000F901E359FC4F14911123E1F081110E9468
:100930008C03E12FF0E0EE0FFF1FED59FC4FA59166
:10094000B491EC9189890E2369F0811113C021962D
:1009500083E0C63FD807B1F6DF91CF911F910F9189
:10096000FF90089589898F5F898B60E08A850E9456
:100970003D04EDCF8F3F11F4198AF7CFF98AF5CFF7
:100980001F93CF93DF93182FEB0161E00E943D048A
:10099000209739F460E0812FDF91CF911F910C9463
:1009A000B503CF3FD10511F461E0F5CFE12FF0E0C1
:1009B000EB56FC4FE491E33031F140F4E130B1F01B
:1009C000E230E1F0C038D1057CF7E4CFE73029F11F
:1009D000E83059F1E430B1F7809180008062809373
:1009E0008000D0938B00C0938A0004C084B58068D7
:1009F00084BDC7BDDF91CF911F91089584B58062FA
:100A000084BDC8BDF7CF809180008068809380004E
:100A1000D0938900C0938800EDCF8091B0008068AA
:100A20008093B000C093B300E5CF8091B0008062A6
:100A30008093B000C093B400DDCF8E50806480936B
:100A40007C0080917A00806480937A0080917A00A3
:100A500086FDFCCF80917800909179000895809177
:100A600013048F7149F584E10E941D05BC01990FA3
:100A7000880B990B0E94EC1526EE3FE34EEC50E4F8
:100A80000E9450160E94BB159B0170930A0460934C
:100A90000904672BB9F084E080930804EBE0F4E0EC
:100AA00080E0419151912417350718F48093080490
:100AB00008958F5F8430A9F7809113048F5F80932E
:100AC000130408958FEF80930804F6CF3FB7F8948E
:100AD0008091420190914301A0914401B091450160
:100AE00026B5A89B05C02F3F19F00196A11DB11D89
:100AF0003FBFBA2FA92F982F8827BC01CD01620FC5
:100B0000711D811D911D42E0660F771F881F991F7F
:100B10004A95D1F708958F929F92AF92BF92CF924C
:100B2000DF92EF92FF924B015C010E9466056B0120
:100B30007C010E9466056C197D098E099F09683E3B
:100B4000734081059105A8F321E0821A9108A1085C
:100B5000B10888EEC80E83E0D81EE11CF11C811498
:100B60009104A104B10429F7FF90EF90DF90CF909A
:100B7000BF90AF909F908F900895DC01643570F521
:100B8000403360F590968C919097E62F062E000CDE
:100B9000FF0B242F25952595259594E52902E00D39
:100BA000F11D1124EE5AFE4F2081342F3770823010
:100BB000B1F4822F90E0032E02C0959587950A9498
:100BC000E2F780958170811114C081E090E001C04E
:100BD000880F3A95EAF780958223808308958330C1
:100BE00091F71C968C9181706427609561708613D3
:100BF000ECCF81E090E001C0880F3A95EAF7822BB4
:100C0000ECCFAF92BF92CF92DF92EF92FF920F9311
:100C10001F93CF93DF93182F062FC0E0D3E08AEF06
:100C2000D82E9EEFE92E842F8470C82E842F8270D8
:100C3000B82E842F8870A82E4170F42ECF5F8C2F91
:100C4000880F8F5FE80ECC2081F0402F4D0F612F71
:100C50006C0F8DE394E00E94BD05402F4C0F6D2F6B
:100C6000610F8DE394E00E94BD05BB2081F0402F11
:100C70004D1B612F6C0F8DE394E00E94BD05402F4A
:100C80004C1B6D2F610F8DE394E00E94BD05AA20DF
:100C900081F0402F4C0F612F6D1B8DE394E00E947B
:100CA000BD05402F4D0F612F6C1B8DE394E00E941A
:100CB000BD05FF2081F0402F4C1B612F6D1B8DE384
:100CC00094E00E94BD05402F4D1B612F6C1B8DE3EE
:100CD00094E00E94BD05CD173CF4E7FCAFCFD150A6
:100CE000D394D394ED0CAACFDF91CF911F910F91A4
:100CF000FF90EF90DF90CF90BF90AF900895EF926C
:100D0000FF920F931F93CF93DF938C01F62ED42F76
:100D1000E22EC0E0CE1544F46F2D6C0F4D2FC801AC
:100D20000E94BD05CF5FF6CFDF91CF911F910F914C
:100D3000FF90EF9008952F923F924F925F926F92A3
:100D40007F928F929F92AF92BF92CF92DF92EF925B
:100D5000FF920F931F93CF93DF9300D000D0CDB7B6
:100D6000DEB79C838B836A3099F4DC0118962C9152
:100D7000189715969C9115971A968C911A97299FFA
:100D8000800D11241A968C931A9719961C92F0C014
:100D90006D3009F4EDC0EB81FC815184F3E5F5156C
:100DA0000CF4C3C0AB81BC811A96FC90BFE2BF15A6
:100DB0000CF4BBC0EB81FC81108524812150330BE6
:100DC000129FC001139F900D1124850D911D57FC9A
:100DD0009A95181619060CF0A8C025818F2D0F2C96
:100DE000000C990B129F800D911D112418161906E5
:100DF0000CF09BC0F0A1F983752C612C262E312CB0
:100E0000A12E012E000CBB08E62D062C000CFF0BBA
:100E1000AB81BC8114968C91149790E0E817F90788
:100E20000CF07EC00197E817F907A1F1289E600138
:100E3000299ED00C389ED00C1124CE0EDF1E5E965B
:100E4000ED91FC91EC0DFD1DE4910F2DE12CB62DE3
:100E5000B50DBA83AB81BC8115962C9115978E2D5B
:100E60000E2C000C990B2817190609F00CF455C02C
:100E7000CE2ED12CE0FF26C0113071F44E2D4F0D37
:100E80006A81CD010E94BD05F601F595E795E394D1
:100E9000010FE0CFE0E0D9CF402E4501800E911C3C
:100EA00007FD9A94842D042C000C990B8815990544
:100EB0005CF7212F442D672D8B819C810E947F063A
:100EC0004394F0CFEB81FC8181A190A18917E1F2DD
:100ED00080A3113061F44E2D4F0D6A81CF010E9425
:100EE000BD05E981AB81BC819096EC93CDCF402EBE
:100EF0004501800E911C07FD9A94842D042C000C52
:100F0000990B881599056CF7212F442D672D8B813E
:100F10009C810E947F064394F0CF6394710E74CF3E
:100F2000E981AB81BC819096EC93AB81BC81189632
:100F30002C91189714963C91149719968C911997A7
:100F4000239F800D112419968C93199717969C91C5
:100F50001797992369F0082E000C990B44E550E08F
:100F6000239F401951091124481759070CF401CF48
:100F700081E090E00F900F900F900F90DF91CF9154
:100F80001F910F91FF90EF90DF90CF90BF90AF90A7
:100F90009F908F907F906F905F904F903F902F9099
:100FA0000895682F8DE394E00C949B060F931F9394
:100FB000CF93DF938C01D0E0C0E0F801EC0FFD1F70
:100FC0006491662341F08DE394E00E949B06892B97
:100FD00011F02196F2CFCE01DF91CF911F910F91A9
:100FE0000895EF92FF920F931F93CF93DF938C019D
:100FF000D62FF42EE22EC0E0CE1544F44F2D4C0F28
:101000006D2FC8010E94BD05CF5FF6CFDF91CF9154
:101010001F910F91FF90EF9008950F931F93CF931F
:10102000DF93182FD62FC42F022F242F462F682F7F
:101030008DE394E00E947F064FEF400F4D0F2C2F61
:10104000612F8DE394E00E947F06202F4D2F612FAA
:101050008DE394E00E94F1076FEF6C0F610F202F7A
:101060004D2F8DE394E0DF91CF911F910F910C9460
:10107000F1078F929F92AF92BF92CF92DF92EF9241
:10108000FF920F931F93CF93DF93082FB62E942ECA
:10109000A22E83E0F82ED0E0C3E09AEFE92E1EEFF7
:1010A000CC24C394C20EDF5F1F0D2C2F220F4B2DBB
:1010B0004C1B8A2C8F0CDB2CDD1A81E02C0D602F51
:1010C000981218C06D0F8DE394E00E94F107282D4F
:1010D0004D2D6C2F600F8DE394E00E94F107DC171B
:1010E0009CF417FD04C0C150E394E3941E0DF394E7
:1010F000F394D9CF6D1B8DE394E00E94F107282D66
:101100004D2D602F6C1BE7CFDF91CF911F910F9179
:10111000FF90EF90DF90CF90BF90AF909F908F9017
:101120000895089590E080E00895CF93DF93E091D3
:101130004701F0914801C681D781209751F022E004
:1011400042E06C818A810E940D080990D881C02DEF
:10115000F4CFDF91CF910895FB0101900020E9F7D2
:101160003197AF01461B570BDC01ED91FC910280DA
:10117000F381E02D09948F929F92AF92BF920F93CB
:101180001F93CF93DF93CDB7DEB7A1970FB6F89437
:10119000DEBF0FBECDBF19A2423008F44AE08E0177
:1011A0000F5D1F4F842E912CB12CA12CA501940111
:1011B0000E948A15E62FB901CA01EA3004F5E05D04
:1011C000D801EE938D01232B242B252B79F790E06A
:1011D00080E0109729F0BD018DE394E00E94AC08F7
:1011E000A1960FB6F894DEBF0FBECDBFDF91CF91B1
:1011F0001F910F91BF90AF909F908F900895E95CE1
:10120000DFCFCF93DF930E94D607EC0169E271E054
:101210008DE394E00E94AC088C0F9D1FDF91CF916D
:101220000895E2E5F1E088EF91E0DF019C011D9275
:1012300021503040E1F710924604109247048BE3AE
:1012400093E00E94D6070E9402048CB583608CBD97
:101250008DB58E7F8DBD8CE291E0EEEFFFE30995B9
:101260001092430486E193E00E9401090E94020467
:101270000E94790480910404813039F062E370E0C7
:1012800080E090E00E948B05F3CF08954F925F922B
:101290006F927F928F929F92AF92BF92CF92DF9286
:1012A000EF92FF920F931F93CF93DF9300D000D064
:1012B0001F92CDB7DEB740916F04509170046091DA
:1012C0007104709172042FB7F89480914B01909142
:1012D0004C01A0914D01B0914E012FBF481B590BFD
:1012E0006A0B7B0B80916E0490E0B0E0A0E000916F
:1012F0006A0410916B0420916C0430916D04841782
:101300009507A607B70708F0CEC0011511052105FE
:10131000310509F4C8C02FB7F89480914B01909122
:101320004C01A0914D01B0914E012FBF20916E0450
:10133000820F911DA11DB11D80936F0490937004C5
:10134000A0937104B0937204809160049091610441
:10135000A0916204B09163040196A11DB11D809318
:10136000600490936104A0936204B09363041092AC
:101370006A0410926B0410926C0410926D040E9427
:101380006605609366047093670480936804909385
:1013900069048091F0039091F1032FE0289FA00150
:1013A000299F500D11245A83498385E10E941D0510
:1013B000A981BA818A0F9B1FB4E096958795BA954B
:1013C000E1F79093F1038093F0032091EF03222340
:1013D00009F448C06091F303262F30E050E040E06C
:1013E00029833A834B835C83C090F403D12CF12C86
:1013F000E12C4091F7035091F8034A01B12CA12C44
:101400002091F5033091F6032901712C612C82178C
:10141000930728F09C014817590708F49A0150E0F7
:1014200040E0241935094609570969817A818B8181
:101430009C816C197D098E099F090E94E516A50102
:10144000940124193509460957090E945815C20EFE
:10145000D31EE41EF51EC092F2036C2D70E085E0F1
:101460000E94C0040E94790480910B0490910C04A6
:10147000892B11F00E942F0581E00F900F900F90A3
:101480000F900F90DF91CF911F910F91FF90EF90F0
:10149000DF90CF90BF90AF909F908F907F906F9094
:1014A0005F904F900895012B022B032B09F0E6C2A9
:1014B0008091060481508E3FB8F5809105048130FB
:1014C00099F5809119048F5F60911A0487FD09C016
:1014D000082E000C990B70E06F5F7F4F0E94011780
:1014E000682F609319048FE093E0909374048093C5
:1014F000730488E4809375040E9400028CEF92E0EC
:1015000090932204809321041092270410922604C1
:1015100081E08093150489E080932A0410922D04C1
:1015200010922F04109231048091060481508E3F56
:1015300070F480910404813009F021C382E093E0CB
:10154000909374048093730488E48093750480916D
:101550001404882331F080911504811102C00E9487
:10156000120280911504882309F43EC08091290459
:1015700081113AC08091210490912204E0912604C7
:10158000F0912704EE0FFF1FE80FF91F259134910A
:101590002115310509F4BBC0A9015695479556950B
:1015A0004795842F20FD5EC08F738093280480911F
:1015B0001804839F802D11248093290410923904EC
:1015C000109238041092370481E080932B048093AA
:1015D0004F0110922C0480912604909127040196CB
:1015E000909327048093260480912B04882331F064
:1015F000809129048111A5C00E9400028091750488
:10160000882309F4F2C18C3008F082C13CE0381B19
:10161000398381E08093450410925D0410925E044A
:10162000409142044D8393E0E92EE40E1981141B8E
:101630000DE2010F0E2C000CFF08E00EF11C07FD5F
:10164000FA94802F002E000C990B8E159F050CF03C
:1016500061C12EE4402F63E08DE394E00E947F0699
:101660000F5FEFCFC901E6E096958795EA95E1F720
:101670008F71932F96959695969590514F70423015
:1016800099F1D0F4442309F43CC04130B9F1E09120
:101690002604F09127043196F0932704E093260462
:1016A000CF01880F991FE0912104F0912204E80FE7
:1016B000F91F2591349170CF433061F0443039F7F0
:1016C00020911804289F802D112480933104909339
:1016D0003204DDCF20911804289F802D112480939F
:1016E0002F0490933004D3CF20911804289F802D8D
:1016F000112480932D0490932E04C9CF0E9453028D
:10170000C6CF8B3008F08AE080932A04C0CF2091A6
:101710002504211110C01092150480911404811128
:1017200003C00E94000260CF0E9412028091260432
:1017300090912704B6CF1092270410922604FC0142
:10174000B8CF81508093290480913904811142C01F
:1017500020913704309138042F5F3F4FC901880F23
:10176000991FE0913304F0913404E80FF91F85913B
:101770009491482F477040933A04492F46954695D7
:1017800040933B04AC0164E0569547956A95E1F7B8
:101790004F7390911804499F402D112440933904B0
:1017A00083FB882780F980934A0130933804209383
:1017B00037048091350490E02817390758F02091BC
:1017C0003604222309F49EC0821B910990933804A9
:1017D000809337048091390481508093390480913B
:1017E0002C0431E0380F30932C04409128042091D0
:1017F0003B04240F80912004280F2093160460914D
:101800002F04662371F070E0832F032E000C990BD8
:101810000E94011780913004869F200D112420938F
:1018200016048091160490E0849664E270E00E94B1
:1018300001178093160420912A04209317046091C5
:101840002D04662381F0062E000C770B832F032EC8
:10185000000C990B0E94011780912E04869F200D89
:10186000112420931704609131046623A1F0832F83
:10187000330F990B70E00E940117CB0162E070E01A
:101880000E9401172091320490911704289F900D17
:101890001124909317044F33C1F1809117048A30BB
:1018A0000CF089E087FD80E080931704F894E091C4
:1018B0001604F0E0E852FD4FE491E09349012091D5
:1018C0003C043091170432039001112440913A04F2
:1018D0004203C001439F900D11242091190402C0BE
:1018E000880F991F2A95E2F797FF02C081589F4FF2
:1018F000880F892F881F990B809350018093510185
:1019000078947CCE0E94000265CF10921704CECF4F
:1019100019827FCE5D8154505D83105D252F41E09B
:10192000612F80E50E9439082D8142E0612F83E01C
:101930000E94390881E080935D0480935E040091E9
:1019400042041981101B8DE2F82EF10E2EE44F2D6A
:1019500063E08DE394E00E947F0683E0800F8F0DAB
:101960008D83482F41502EE463E08DE394E00E9484
:101970007F060350105D202F412F60E08DE394E03F
:101980000E94F107202F412F63E58DE394E00E9430
:10199000F10741E0612F83E00E94010642E0612FE0
:1019A00080E50E9401069D8194509D8344E0692F4B
:1019B00080E50E94010648E06D8183E00E940106F7
:1019C00084E08093460480914204A981A81BA15D14
:1019D000A093470480917304909174040E94D607E9
:1019E0008091750481508093750480910B049091CF
:1019F0000C04892BD9F0B1E0B0935D0410925E0421
:101A00009091410485E5891B809346041092470418
:101A100080910804813009F497C090F190910704F7
:101A2000853008F0A7C08B5F91119FC00E9402040F
:101A30008091430481110EC0E2E5F1E088EF91E06E
:101A4000DF019C011D9221503040E1F710924604C5
:101A5000109247040E94660560936A0470936B04B9
:101A600080936C0490936D04209166043091670418
:101A7000621B730B709365046093640480E0FDCC7B
:101A80000E9400021092150421E020934504E6E52F
:101A9000F1E0E491EF5FE0934104E7E5F1E0E491E8
:101AA000EF5FE093420488E591E090935C048093BB
:101AB0005B0410920C0410920B041092430438EA59
:101AC00039830E9446098823E1F388E491E00E946B
:101AD000D6076091090470910A0490E080E04AE022
:101AE0000E94BB0883E391E00E94D607698162955A
:101AF0006F7070E090E080E04AE00E94BB0888E2EE
:101B000091E00E94D60780910404813009F48ECFC1
:101B10004981415049834111D4CF70E060E085E0B4
:101B20000E94C00483B7817F846083BF83B78160D4
:101B300083BF83B7816083BF889583B78E7F83BF60
:101B400083B78E7F83BFBDCF809160049091610485
:101B5000A0916204B09163048F709927AA27BB27D4
:101B60000897A105B10520F487E00E94D1075ECF58
:101B700088E7FBCF992309F459CF8FE2F6CF89325A
:101B800009F0E5CC0E941109E2CC1F920F920FB62A
:101B90000F9211242F933F934F935F936F937F93F3
:101BA0008F939F93AF93BF93EF93FF9382E593E05F
:101BB0000E94FD02FF91EF91BF91AF919F918F9194
:101BC0007F916F915F914F913F912F910F900FBE39
:101BD0000F901F9018951F920F920FB60F9211241D
:101BE0002F938F939F93EF93FF93E0916203F09174
:101BF00063038081E0916803F091690382FD1BC05B
:101C0000908180916B038F5F8F7320916C0382179B
:101C100041F0E0916B03F0E0EE5AFC4F958F80931A
:101C20006B03FF91EF919F918F912F910F900FBEBA
:101C30000F901F9018958081F4CF1F920F920FB6CE
:101C40000F9211242F933F938F939F93AF93BF9342
:101C500080914B0190914C01A0914D01B0914E01AA
:101C60003091410123E0230F2D3758F50196A11D36
:101C7000B11D2093410180934B0190934C01A0939F
:101C80004D01B0934E018091420190914301A0918A
:101C90004401B09145010196A11DB11D80934201FF
:101CA00090934301A0934401B0934501BF91AF913C
:101CB0009F918F913F912F910F900FBE0F901F908A
:101CC000189526E8230F0296A11DB11DD2CF1F92B1
:101CD0000F920FB60F9211242F936F937F938F93D0
:101CE0009F9360915001662349F1809140018F5F7D
:101CF0008093400190914901891700F120914F0193
:101D000081E0282720934F011092400180914A01E1
:101D1000882369F08091000193E4899F802D11242C
:101D2000895B809300010E94F51690935101809188
:101D30005101211101C080E08093B4009F918F91E7
:101D40007F916F912F910F900FBE0F901F9018955C
:101D5000E2E5F3E01382128288EE93E0A0E0B0E0C7
:101D600084839583A683B7838FE091E091838083FA
:101D700085EC90E09587848784EC90E09787868750
:101D800080EC90E0918B808B81EC90E0938B828B48
:101D900082EC90E0958B848B86EC90E0978B868B21
:101DA000118E128E138E148E1092400410923F04E6
:101DB00081E291E090933E0480933D0408957894ED
:101DC00084B5826084BD84B5816084BD85B5826040
:101DD00085BD85B5816085BD80916E0081608093F1
:101DE0006E0010928100809181008260809381005A
:101DF000809181008160809381008091800081606A
:101E0000809380008091B10084608093B1008091C4
:101E1000B00081608093B00080917A0084608093EC
:101E20007A0080917A00826080937A0080917A00B3
:101E3000816080937A0080917A00806880937A0034
:101E40001092C10082E380936E0481E090E0A0E0F4
:101E5000B0E080936A0490936B04A0936C04B093F9
:101E60006D048FEF80935F04E0E8F7E725913491EC
:101E70002130304C09F06AC2E6E9F7E7E491E093DB
:101E80004804E7E9F7E7E491E093F303E8E9F7E7CB
:101E9000E491E093F403E9E9F7E785919491909355
:101EA000F6038093F503EBE9F7E78591949190931E
:101EB000F8038093F70387E080931A04EEE9F7E7CD
:101EC000E491E0931904EFE9F7E7E491E0935F040C
:101ED000E0EAF7E78591949190930C0480930B04CA
:101EE000E2EAF7E78591949190930E0480930D04B4
:101EF000E4EAF7E7859194919093100480930F049E
:101F0000E6EAF7E785919491909312048093110487
:101F1000C1E0C093EF036FEF70E085E00E94C00462
:101F200088E08093F90389E08093FA0387E0809347
:101F3000FB0386E08093FC03D4E0D093FD0382E0B2
:101F40008093FE0381E18093FF030E9479048CE378
:101F50009FE090930A0480930904D0930804C093EF
:101F600013048BE080934B048DE080934A0480E15E
:101F700080934C048EE080934E048FE080934D0458
:101F8000C0934504C0935D0410925E04C093440462
:101F9000E6E5F1E0E491EF5FE0934104E7E5F1E08D
:101FA000E491EF5FE093420488E591E090935C0454
:101FB00080935B04CFB7F89480914601811127C0CC
:101FC000E7E7F3E08491EBE8F3E09491E82FF0E0A9
:101FD000EE0FFF1FEC58FF4FA591B491EC91E92350
:101FE00021F461E08AE00E94B50361E08AE00E948A
:101FF0003D048CB580618CBD8CB580648CBD61E086
:102000008DE00E943D0461E08BE00E943D048091E0
:1020100046018F5F80934601CFBF8CB58F7D8CBD0D
:102020008CB58C7F81608CBD8DB581608DBD8CB58C
:102030008C608CBD61E080914B040E943D0461E0A6
:1020400080914A040E943D0461E080914C040E940A
:102050003D0480914E0418161CF461E00E943D047A
:1020600080914D0418161CF461E00E943D0480919B
:102070004E04181674F460E00E94B5036AE070E044
:1020800080E090E00E948B0561E080914E040E9408
:10209000B50380914A04082E000C990BFC01E3590A
:1020A000FC4FE491F0E0EE0FFF1FE258FF4F259147
:1020B00034913093520420935104FC01EF57FC4FAC
:1020C000E491E093580480914B04082E000C990B86
:1020D000FC01E359FC4FE491F0E0EE0FFF1FE258E2
:1020E000FF4F259134913093500420934F04FC010D
:1020F000EF57FC4FE491E093570480914D04082E74
:10210000000C990BFC01E359FC4FE491F0E0EE0F59
:10211000FF1FE258FF4F25913491309354042093D0
:102120005304FC01EF57FC4FE491E0935904809174
:102130004C04082E000C990BFC01E359FC4FE49170
:10214000F0E0EE0FFF1FE258FF4F259134913093DE
:10215000560420935504FC01EF57FC4FE491E093A3
:102160005A0481E20E94E30384E10E94E303809128
:10217000480487FF03C08FE7809348048091480498
:1021800080680E94E30380E20E94E3038CE00E94E7
:10219000E3030E94020481E08093180484E08093AA
:1021A0003C0480E790E0909324048093230480E033
:1021B0000E94530261E070E083E00E94C0048091BD
:1021C000B100887F81608093B100F8941092800004
:1021D00010928100109285001092840088E191E0B5
:1021E000909389008093880080918100886080931B
:1021F00081008091810081608093810080916F00D7
:10220000826080936F00789480910B0490910C040D
:10221000892B11F00E942F0580910504813009F46B
:10222000C2C080910804882309F4BDC00E94000246
:1022300088E890E090932204809321041092270470
:102240001092260481E08093150489E080932A048B
:1022500010922D0410922F041092310480915F048B
:10226000882309F4B3C181E08093450410924404AB
:10227000109243041092070480935D0480935E04DF
:10228000C1E0D1E09CEF892E92E0992E1CE009E09C
:102290000E9446098823E1F3E2E2F1E08491E2EB57
:1022A000F0E0A490E3EBF0E0C4900A2C000CBB0833
:1022B0001A141B040CF0CDC01C140CF0CAC0709191
:1022C0005D04EC2DE1330CF0E0E39A2DF5E5AF165B
:1022D000B1040CF094E5F090490487E0A80EB11C1D
:1022E00083E0B594A7948A95E1F760E022E531E0B8
:1022F00081E044EB50E0CE2EEE0FDD086C151D049E
:102300000CF0A7C0FA01E490713009F04FC0D90178
:102310006894772477F8672C6E2019F06C90682AFF
:102320006C92769429F43196E4906894772477F847
:1023300011966A2E621A691670F3880F19F42C5AD6
:102340003F4F81E06F5F4A0D5B1DD8CF9CE39093B8
:1023500048041092F3038093F40380E293E0909397
:10236000F6038093F50384ED93E09093F803809354
:10237000F70387E080931A04809319048CEA9DE0A8
:1023800090930C0480930B048EED9DE090930E04CB
:1023900080930D0484E79EE09093100480930F04D3
:1023A0008CE39FE0B1CD1092190458CF711119C080
:1023B000682E6094D9016894772477F8572C5E20B2
:1023C00019F05C9056205C92769429F43196E49052
:1023D0006894772477F811965A2E521A591670F38A
:1023E000ACCFD9016894772477F87330F9F4482E8C
:1023F00040946894662467F8512C762C7E2039F03E
:102400007C90352C3F2430FE0FC0782A7C92669455
:1024100029F43196E4906894662467F853941196F1
:10242000591658F3FC2689CF7420F0CF672C6E2004
:1024300019F06C9068266C92769429F43196E490A9
:102440006894772477F811966A2E621A691670F3E9
:1024500074CF109246041093470482E291E00E94E8
:10246000D60780914104982F990F990F891B8D5A97
:102470008093460480914204982F990F990F891BED
:10248000835D809347048091600484FF78C08EEA66
:1024900090E00E94010980914104982F990F990FB3
:1024A000891B8D5A80934604809147048F5F8093E7
:1024B000470480911904882309F464C086EA90E0F7
:1024C0000E94010980914104982F990F990F891B4F
:1024D0008D5A80934604809147048F5F8093470410
:1024E0008EE990E00E94010980910504813031F568
:1024F000809119048F5F60911A0487FD09C0082E2E
:10250000000C990B70E06F5F7F4F0E940117682FDE
:10251000609319040E940002909222048092210488
:102520001092270410922604D093150400932A04D5
:1025300010922D0410922F04109231048091040403
:10254000813019F180915F04482F50E070E060E025
:10255000C0906004D0906104E0906204F090630445
:10256000C416D506E606F70610F08F3F71F4809189
:102570000604813009F08CCE0E94110987CE8AEAC8
:1025800090E087CF82EA90E09BCF8FEF80935F044B
:102590000E940002109215040E94000286E990E059
:1025A0009093220480932104109227041092260411
:1025B00081E08093150499E090932A0410922D04F1
:1025C00010922F041092310480930704E09162036B
:1025D000F091630382E08083E0915E03F0915F03FA
:1025E0001082E0916003F09161038FEC8083109280
:1025F0006A03E0916603F091670386E08083E091CF
:102600006403F0916503808180618083E0916403BD
:10261000F0916503808188608083E0916403F0918C
:102620006503808180688083E0916403F091650395
:1026300080818F7D80830E9400154B015C010E9488
:1026400000152B013C010E9400156B017C01C0911B
:102650004701D0914801C501B40124E530E040E0D4
:1026600050E00E94581579836883C301B20120E3CA
:1026700030E040E050E00E9458157B836A838BE095
:1026800090E00E948F13EC018EE190E099838883A3
:102690009B838A83C701B60124E030E040E050E02C
:1026A0000E945815798768871A8684E090E00E9416
:1026B0008F13FC011182108213821282808191811A
:1026C000A281B3818C839D83AE83BF83D093480165
:1026D000C093470124E044E06EE18EE10E940D08C2
:1026E0000E949508C0E0D0E00E944609882371F05E
:1026F0000E9495082AE04AE06EE18EE10E940D08F2
:1027000063E371E082E593E00E94AC08209761F3F7
:102710000E94E902882341F30E940000E5CF0F9355
:102720001F93CF93DF938230910510F482E090E005
:10273000E0917804F091790430E020E0B0E0A0E08E
:10274000309799F42115310509F44AC0281B390B3B
:1027500024303105D8F58A819B816115710589F195
:10276000FB0193838283FE0111C04081518102816C
:10277000138148175907E0F04817590799F4109743
:1027800061F012960C93129713961C933296CF0118
:10279000DF91CF911F910F910895009378041093CA
:1027A0007904F4CF2115310551F04217530738F061
:1027B000A901DB019A01BD01DF01F801C1CFEF01E1
:1027C000F9CF9093790480937804CDCFFE01E20F86
:1027D000F31F819391932250310939832883D7CFF6
:1027E0002091760430917704232B41F4209103014A
:1027F00030910401309377042093760420910101F5
:10280000309102012115310541F42DB73EB74091B9
:10281000050150910601241B350BE0917604F091DF
:102820007704E217F307A0F42E1B3F0B2817390794
:1028300078F0AC014E5F5F4F2417350748F04E0F1C
:102840005F1F5093770440937604819391939FCFB9
:10285000F0E0E0E09CCFCF93DF930097E9F0FC013C
:10286000329713821282A0917804B0917904ED011D
:1028700030E020E01097A1F420813181820F931F76
:1028800020917604309177042817390709F061C048
:10289000F0937704E0937604DF91CF910895EA01F5
:1028A000CE17DF07E8F54A815B819E01411551058E
:1028B000B1F7E901FB83EA8349915991C40FD51F10
:1028C000EC17FD0761F4808191810296840F951FBA
:1028D000E90199838883828193819B838A83F0E0D5
:1028E000E0E012968D919C9113970097B9F52D9188
:1028F0003C911197CD010296820F931F209176048F
:10290000309177042817390739F6309751F510922E
:10291000790410927804B0937704A0937604BCCF26
:10292000D383C28340815181840F951FC817D90773
:1029300061F44E5F5F4F88819981480F591F518321
:1029400040838A819B81938382832115310509F01D
:10295000B0CFF0937904E09378049ECFFD01DC01C1
:10296000C0CF13821282D7CF8F929F92AF92BF9225
:10297000CF92DF92EF92FF92CF93DF93EC016881C9
:1029800079818A819B81611571058105910521F409
:1029900064E279ED8BE597E02DE133EF41E050E023
:1029A0000E94581549015A019B01AC01A7EAB1E404
:1029B0000E9477156B017C01ACEEB4EFA501940188
:1029C0000E948515C60ED71EE81EF91EF7FE06C02A
:1029D00081E0C81AD108E10880E8F80AC882D982E3
:1029E000EA82FB82C701B6019F77DF91CF91FF900A
:1029F000EF90DF90CF90BF90AF909F908F90089511
:102A00008F929F92AF92BF92CF92DF92EF92FF92FE
:102A100060910701709108018091090190910A016C
:102A2000611571058105910521F464E279ED8BE56D
:102A300097E02DE133EF41E050E00E945815490145
:102A40005A019B01AC01A7EAB1E40E9477156B0122
:102A50007C01ACEEB4EFA50194010E948515C60E71
:102A6000D71EE81EF91EF7FE06C081E0C81AD1087D
:102A7000E10880E8F80AC0920701D0920801E092CC
:102A80000901F0920A01C701B6019F77FF90EF900C
:102A9000DF90CF90BF90AF909F908F9008956093FC
:102AA0000701709308018093090190930A0108952A
:102AB000052E97FB1EF400940E946F1557FD07D05A
:102AC0000E948A1507FC03D04EF40C946F155095A4
:102AD0004095309521953F4F4F4F5F4F089590950A
:102AE0008095709561957F4F8F4F9F4F08950E94FD
:102AF000AC15A59F900DB49F900DA49F800D911DC6
:102B000011240895B7FF0C9477150E947715821B46
:102B1000930B0895A1E21A2EAA1BBB1BFD010DC049
:102B2000AA1FBB1FEE1FFF1FA217B307E407F5077D
:102B300020F0A21BB30BE40BF50B661F771F881F59
:102B4000991F1A9469F760957095809590959B01EF
:102B5000AC01BD01CF010895A29FB001B39FC00198
:102B6000A39F700D811D1124911DB29F700D811DB9
:102B70001124911D08950E942F1688F09F5798F0F8
:102B8000B92F9927B751B0F0E1F0660F771F881F72
:102B9000991F1AF0BA95C9F714C0B13091F00E948C
:102BA0004916B1E008950C944916672F782F8827AD
:102BB000B85F39F0B93FCCF3869577956795B395B3
:102BC000D9F73EF490958095709561957F4F8F4F22
:102BD0009F4F0895E89409C097FB3EF49095809527
:102BE000709561957F4F8F4F9F4F9923A9F0F92FD3
:102BF00096E9BB279395F695879577956795B79551
:102C0000F111F8CFFAF4BB0F11F460FF1BC06F5F36
:102C10007F4F8F4F9F4F16C0882311F096E911C048
:102C2000772321F09EE8872F762F05C0662371F069
:102C300096E8862F70E060E02AF09A95660F771F7D
:102C4000881FDAF7880F9695879597F9089557FDAD
:102C50009058440F551F59F05F3F71F04795880F0A
:102C600097FB991F61F09F3F79F0879508951216A1
:102C700013061406551FF2CF4695F1DF08C016164D
:102C800017061806991FF1CF8695710561050894FE
:102C90000895E894BB2766277727CB0197F9089515
:102CA0000E9463160C94D4160E94C61638F00E9437
:102CB000CD1620F0952311F00C94BD160C94C3167C
:102CC00011240C944A160E94271670F3959FC1F3A5
:102CD000950F50E0551F629FF001729FBB27F00DCA
:102CE000B11D639FAA27F00DB11DAA1F649F66271F
:102CF000B00DA11D661F829F2227B00DA11D621F6E
:102D0000739FB00DA11D621F839FA00D611D221F27
:102D1000749F3327A00D611D231F849F600D211D0B
:102D2000822F762F6A2F11249F5750409AF0F1F08E
:102D300088234AF0EE0FFF1FBB1F661F771F881FF7
:102D400091505040A9F79E3F510580F00C94BD165C
:102D50000C944A165F3FE4F3983ED4F3869577953A
:102D60006795B795F795E7959F5FC1F7FE2B880F9D
:102D7000911D9695879597F9089597F99F6780E833
:102D800070E060E008959FEF80EC089500240A94BD
:102D90001616170618060906089500240A94121636
:102DA0001306140605060895092E0394000C11F469
:102DB000882352F0BB0F40F4BF2B11F460FF04C016
:102DC0006F5F7F4F8F4F9F4F0895DB018F939F93CE
:102DD0000E947715BF91AF91A29F800D911DA39F77
:102DE000900DB29F900D11240895991B79E004C0B5
:102DF000991F961708F0961B881F7A95C9F780953A
:102E0000089597FB072E16F4009407D077FD09D09C
:102E10000E94151707FC05D03EF4909581959F4FB1
:102E20000895709561957F4F0895AA1BBB1B51E1D2
:102E300007C0AA1FBB1FA617B70710F0A61BB70B2A
:102E4000881F991F5A95A9F780959095BC01CD01CF
:102E50000895EE0FFF1F0590F491E02D0994F8946A
:022E6000FFCFA2
:102E62000100007A04800001000000000000001F41
:102E7200037F02AC026C03DD02BB02CF0200000042
:102E8200009B067F02920891080D0A004C4F4144B4
:102E920045520048656C6C6F2C20776F726C640031
:107E0000112484B714BE81FFF0D085E080938100F7
:107E100082E08093C00088E18093C10086E0809377
:107E2000C20080E18093C4008EE0C9D0259A86E02C
:107E300020E33CEF91E0309385002093840096BBD3
:107E4000B09BFECF1D9AA8958150A9F7CC24DD24C4
:107E500088248394B5E0AB2EA1E19A2EF3E0BF2EE7
:107E6000A2D0813461F49FD0082FAFD0023811F036
:107E7000013811F484E001C083E08DD089C08234E0
:107E800011F484E103C0853419F485E0A6D080C0E4
:107E9000853579F488D0E82EFF2485D0082F10E0AE
:107EA000102F00270E291F29000F111F8ED06801E7
:107EB0006FC0863521F484E090D080E0DECF843638
:107EC00009F040C070D06FD0082F6DD080E0C81688
:107ED00080E7D80618F4F601B7BEE895C0E0D1E017
:107EE00062D089930C17E1F7F0E0CF16F0E7DF06D8
:107EF00018F0F601B7BEE89568D007B600FCFDCFD4
:107F0000A601A0E0B1E02C9130E011968C91119780
:107F100090E0982F8827822B932B1296FA010C0160
:107F200087BEE89511244E5F5F4FF1E0A038BF0790
:107F300051F7F601A7BEE89507B600FCFDCF97BE46
:107F4000E89526C08437B1F42ED02DD0F82E2BD052
:107F50003CD0F601EF2C8F010F5F1F4F84911BD097
:107F6000EA94F801C1F70894C11CD11CFA94CF0C13
:107F7000D11C0EC0853739F428D08EE10CD085E9AC
:107F80000AD08FE07ACF813511F488E018D01DD067
:107F900080E101D065CF982F8091C00085FFFCCF94
:107FA0009093C60008958091C00087FFFCCF809118
:107FB000C00084FD01C0A8958091C6000895E0E648
:107FC000F0E098E1908380830895EDDF803219F02E
:107FD00088E0F5DFFFCF84E1DECF1F93182FE3DFCA
:107FE0001150E9F7F2DF1F91089580E0E8DFEE27F6
:047FF000FF270994CA
:027FFE00040479
:0400000300007E007B
:00000001FF
